S0120000536F727469726F766B612E73726563DE
S11300000C9401010C94BA030C941E010C941E016F
S11300100C941E010C941E010C941E010C941E01E0
S11300200C941E010C941E010C941E010C94D20716
S11300300C941E010C941E010C941E010C941E01C0
S11300400C941E010C941E010C9420010C94890143
S11300500C946B010C941E010C941E010C941E0153
S11300600C940D050C941E012B05D906D906D9064E
S1130070D906D906D906D9063905D906D906D90625
S1130080D906D906D906D9065805D906D906D906F6
S1130090D906D906D906D9067005D906D906D906CE
S11300A0D906D906D906D9069C05D906D906D90692
S11300B0D906D906D906D906AA05D906D906D90674
S11300C0D906D906D906D906EB05D906D906D90623
S11300D0D906D906D906D906F905D906D906D90605
S11300E0D906D906D906D9060606D906D906D906E7
S11300F0D906D906D906D9061906D906D906D906C4
S1130100D906D906D906D9062706D906D906D906A5
S1130110D906D906D906D9064406D906D906D90678
S1130120D906D906D906D9065E06D906D906D9064E
S1130130D906D906D906D9065506D906D906D90647
S1130140D906D906D906D9065E06D906D906D9062E
S1130150D906D906D906D9065506D906D906D90627
S1130160D906D906D906D9066906D906D906D90603
S1130170D906D906D906D9067F06D906D906D906DD
S1130180D906D906D906D9066906D906D906D906E3
S1130190D906D906D906D9067F06D906D906D906BD
S11301A0D906D906D906D9069806D906D906D90694
S11301B0D906D906D906D906A506D906D906D90677
S11301C0D906D906D906D9069C06D906D906D90670
S11301D0D906D906D906D906AF06D906D906D9064D
S11301E0D906D906D906D906C606D906D906D90626
S11301F0D906D906D906D906C606576F726C64218A
S1130200000011241FBECFEFD8E0DEBFCDBF11E048
S1130210A0E0B1E0E8E1F1E102C005900D92AE3159
S1130220B107D9F722E0AEE1B1E001C01D92AD33D0
S1130230B207E1F70E9420040C948A080C94000091
S11302401F920F920FB60F9211242F933F934F9347
S11302505F936F937F938F939F93AF93BF93EF932A
S1130260FF934091C6002091DF018091EB0130E0C3
S113027090E00197281739077CF4E091DF0181E0D1
S11302808E0F8093DF01F0E0E057FE4F40838091B2
S1130290EB018F5F8093EB012091EB0130E08091C3
S11302A0910190E002962817390724F08DE394E039
S11302B00E941A07FF91EF91BF91AF919F918F9187
S11302C07F916F915F914F913F912F910F900FBE4E
S11302D00F901F9018951F920F920FB60F92112432
S11302E08F93EF93FF938091C00085FF0AC02C9AEF
S11302F0E1ECF0E080818F7980831092DF0110922D
S1130300EB01FF91EF918F910F900FBE0F901F9013
S113031018951F920F920FB60F9211242F933F93AB
S11303208F939F93EF93FF932091DE018091EA01D5
S113033030E090E00197281739076CF4E091DE0172
S113034081E08E0F8093DE01F0E0E052FE4F808169
S11303508093C60005C0E1ECF0E080818F7D80834E
S1130360FF91EF919F918F913F912F910F900FBE2D
S11303700F901F9018952091300280913C02982F85
S11303809F7B90933C02817139F064E170E087EDCA
S113039091E00E944107089580912E028093EC0120
S11303A080912D0280932E0220932D020895809136
S11303B03C0286FF07C065E070E087ED91E00E9493
S11303C0410708952FB7F89480E480933C0280930A
S11303D0330210922F0281E0809339028BEB91E07B
S11303E0909315018093140190931101809310014F
S11303F085EA8093BC002FBF08951F93CF93DF93AA
S113040000D0CDB7DEB780912401882339F062E3B0
S113041070E08DEF91E00E944107ABC08091230111
S1130420811108C080910E0190910F01892B09F46C
S1130430A0C002C0898309C041E050E0BE016F5FE3
S11304407F4F88E091E00E94C8041092200110922E
S11304501F0110921E018981883081F038F48230A6
S113046009F445C0843009F44AC054C0803111F104
S1130470813159F1893009F04DC00BC042E050E0A0
S113048061E271E088E091E00E94C80489E0809311
S11304902301E0912101F091220181918A83F0935B
S11304A02201E0932101811137C0198210922301A6
S11304B010E435C042E050E061E271E088E091E090
S11304C00E94C80481E180932301E0912101F0910D
S11304D0220184918A833196F0932201E0932101D1
S11304E081111CC019821092230110E418C086E007
S11304F090E09093200180931F0110E001C010E46C
S113050041E050E0BE016E5F7F4F88E091E00E94C1
S1130510C80405C010E403C010E401C010E48981DC
S1130520882339F194E49093FD0182E08093FE01E5
S11305301093FF01212F20612093000226E42093D1
S1130540010221E0209302022A8120930302909366
S11305500402809305021093060280E6809307024A
S11305608BE0809324011092250186EC92E00E9496
S11305701A070F900F90DF91CF911F910895109259
S11305801E018DEF91E00E941A070895CF93CFB713
S1130590F89480911E01811177C0E0912501E11149
S11305A00BC080913C0286FF07C065E070E086ECDA
S11305B092E00E94410768C080912401E81708F086
S11305C044C084E480933C0286EC92E0909315014D
S11305D080931401909311018093100110922F02C3
S11305E0AE2FB0E0A350BE4F8C918093330252E003
S11305F05E0F50932501EF5FF0E0E350FE4F408122
S11306004423C9F090E0242F290F892F352F391B5B
S1130610E82FF0E0E05DFD4FA32FA80FB0E0A3505A
S1130620BE4F9C9190838F5F8213F2CF20932F0251
S1130630450F4093250180912F0280933902109237
S11306402F0285EA8093BC001FC080913C028F7BFF
S113065080933C02109224011092250160911F01A5
S1130660709120016115710559F08FEB92E00E94A1
S1130670410781E080931E011092200110921F0116
S11306808DEF91E00E941A07CFBFCF91089588E0C3
S113069091E00E94450480E091E00E9445040895A1
S11306A0CF93C82F62E088E091E00E9491046C2F00
S11306B088E091E00E9491048DEF91E00E941A0776
S11306C0CF91089561708F7390E4699F800D112418
S11306D080680E9450030895CF93C82F64E088E097
S11306E091E00E9491046C2F88E091E00E949104B3
S11306F08DEF91E00E941A07CF910895CF93DF9375
S113070000D0CDB7DEB79A83898368E088E091E0B2
S11307100E94910442E050E0BE016F5F7F4F88E089
S113072091E00E944D048DEF91E00E941A070F9012
S11307300F90DF91CF910895CF93DF9300D0CDB781
S1130740DEB79A83898360E188E091E00E94910496
S113075042E050E0BE016F5F7F4F88E091E00E946D
S11307604D048DEF91E00E941A070F900F90DF91D6
S1130770CF9108951F920F920FB60F9211242F93C9
S11307803F934F935F936F937F938F939F93AF9315
S1130790BF93EF93FF9387ED91E00E941A07FF91B7
S11307A0EF91BF91AF919F918F917F916F915F91E5
S11307B04F913F912F910F900FBE0F901F9018955E
S11307C061E085E00E9462038AEF91E00E949C034D
S11307D068EE73E084E094E00E944107089586E1A6
S11307E091E00E947E0364EF71E080EE93E00E944A
S11307F04107089582E30E946C0364EF71E08FEE79
S113080093E00E944107089581E00E94500364EF41
S113081071E08AEF93E00E94410708955D988FE1AB
S113082093E00197F1F700C000005D9A8EE00E940A
S1130830500364EF71E084E094E00E94410708955E
S113084028E288E190E00FB6F894A89580936000C0
S11308500FBE209360000E944B080E94EA060E948B
S113086047030E94F7060E9439088EE094E00E9434
S11308701A07A8950E94A607FCCF809192018111C6
S113088003C081E0809390010895FC0180819181EF
S113089095838483178216820895EF92FF920F93B3
S11308A01F93CF93DF93FC01EB019A01E080F18069
S11308B0628173818B01015011090E0D1F1D468148
S11308C05781848195818E199F09840F951F0E94F9
S11308D05C08D701A80FB91F12161306D4F40A171F
S11308E01B0710F4A081B18186819781892B29F09F
S11308F0848195818A179B0761F089918D93868104
S113090097810196978386832150310921153105FA
S113091031F7C901DF91CF911F910F91FF90EF90B3
S113092008950F931F93CF93DF93FC01462FC0814B
S1130930D181228133810481158186819781B80117
S11309406C1B7D0B860F971FB9010E945C088C0FEE
S11309509D1F215031092C0F3D1F2817390708F01E
S1130960EC0186819781892B19F0C017D10749F0D2
S113097048838681978101969783868380E090E0FF
S113098002C081E090E0DF91CF911F910F91089513
S11309900F931F93CF93DF93FC01028113810150C6
S11309A0110980819181080F191F1416150654F539
S11309B0868197811816190644F5A62FB72F80E073
S11309C090E0C481D58128812D93248135812F5FC6
S11309D03F4F358324836681778161507109778322
S11309E066830217130720F4208131813583248321
S11309F001968417950759F026813781121613063C
S1130A0004F305C080E090E002C080E090E0DF9154
S1130A10CF911F910F91089508951F920F920FB6D1
S1130A200F9211242F933F934F935F936F937F9370
S1130A308F939F93AF93BF93EF93FF938091B900EC
S1130A40887F90E0893C910508F0B3C1FC01EC5C1F
S1130A50FF4F0C94700880913C02816080933C02AB
S1130A6085E98093BC00E0911001F0911101099592
S1130A70A0C15D988FE891E00197F1F700C00000F4
S1130A805D9A80913C028C7031F4809133028160D4
S1130A908093330205C0809133028E7F80933302AA
S1130AA0809133028093BB0085E88093BC0081C1B0
S1130AB080913C028C70883031F4809133028160E3
S1130AC08093330205C0809133028E7F809333027A
S1130AD0809133028093BB0085E88093BC0069C198
S1130AE080913C028C70843081F4E0912F02F0E01C
S1130AF0E05DFD4F80818093BB0080912F028F5F6A
S1130B0080932F0285E88093BC0080913C028C7016
S1130B10883009F04EC1E0913802F0E0EA5CFD4F04
S1130B2080818093BB00809138028F5F809338026C
S1130B3085E88093BC003DC180913C028061809334
S1130B403C0285E98093BC00E0911001F091110111
S1130B5009952FC180913C028C708430E9F4E091B6
S1130B602F0280913902E81309C085E98093BC0003
S1130B70E0911401F091150109950EC0F0E0E05DDB
S1130B80FD4F80818093BB0080912F028F5F809303
S1130B902F0285E88093BC0080913C028C708830E1
S1130BA009F007C1E091380280913502E81304C0CE
S1130BB085EA8093BC00FDC0F0E0EA5CFD4F8081D3
S1130BC08093BB00809138028F5F8093380285E860
S1130BD08093BC00EEC080913C02826080933C0212
S1130BE085E98093BC00E0911401F0911501099509
S1130BF0E0C080913C02806280933C0210922F02FC
S1130C001092380285EA8093BC00D3C020912F0251
S1130C1030E02F5F3F4F8091390290E02817390769
S1130C2021F485E88093BC00C4C085EC8093BC00AB
S1130C30C0C080913C02806180933C0285E980932E
S1130C40BC00E0911001F09111010995B2C020910E
S1130C502F028091BB00E22FF0E0E05DFD4F808326
S1130C602F5F20932F0230E02F5F3F4F8091390296
S1130C7090E02817390721F485E88093BC0099C0D7
S1130C8085EC8093BC0095C08091BB00E0912F025D
S1130C90F0E0E05DFD4F808385E98093BC00E09146
S1130CA01401F0911501099584C080913C02806A79
S1130CB080933C0210922F021092380280913C02E1
S1130CC0806480933C0210923A0285E88093BC00D1
S1130CD070C080913A029091BB00E82FF0E0E55C8F
S1130CE0FD4F90838F5F80933A02811104C085E8A1
S1130CF08093BC005EC085EC8093BC005AC0809198
S1130D00BB00E0913A02F0E0E55CFD4F8083809106
S1130D103C02882324F485EE8093BC0003C085EC58
S1130D208093BC00E0911201F0911301099541C038
S1130D3085EC8093BC003DC080913C02806A809326
S1130D403C0210922F021092380210923A028091C3
S1130D5034028093BB0085E88093BC002AC0E091F4
S1130D603A02EF5FE0933A02F0E0EC5CFD4F8081E1
S1130D708093BB0080913A02811104C085E880937E
S1130D80BC0017C081EC8093BC0013C080913C026E
S1130D9088233CF48F7780933C0285EE8093BC00DB
S1130DA003C085EC8093BC00E0911201F091130123
S1130DB00995FF91EF91BF91AF919F918F917F9191
S1130DC06F915F914F913F912F910F900FBE0F90B4
S1130DD01F90189588B1806388B987B18F7C87B9D3
S1130DE088E48093B8001092B9000895089580E0D3
S1130DF090E026EF36E0FC01EE0FFF1FEA59FE4FAC
S1130E0031832083019685319105A9F780E090E034
S1130E1026EF36E0FC01EE0FFF1FEE0FFF1FEA5D29
S1130E20FE4F318320831382128201968031910513
S1130E3089F708950FB607FE0CC0F894A1E00AC024
S1130E402F5F3F4F2531310539F4AA23C9F0789437
S1130E500895A0E020E030E0F901EE0FFF1FEA5909
S1130E60FE4F40815181465F564051F7F901EE0F24
S1130E70FF1FEA59FE4F91838083AA2309F07894D7
S1130E800895CF930FB607FE03C0F894C1E001C0E4
S1130E90C0E020912601309127012817390781F0FD
S1130EA021E030E0D901F901EE0FFF1FEE0FFF1F23
S1130EB0EA5DFE4F408151814817590789F402C009
S1130EC0A0E0B0E0AA0FBB1FAA0FBB1FAA5DBE4FD4
S1130ED013967C936E931297CC23B1F1789434C01B
S1130EE02F5F3F4F20313105E9F6209126013091E3
S1130EF02701265F364081F021E030E0D901F90175
S1130F00EE0FFF1FEE0FFF1FEA5DFE4F4081518180
S1130F10465F5640A1F402C0A0E0B0E0AA0FBB1F98
S1130F20AA0FBB1FAA5DBE4F11969C938E93139676
S1130F307C936E931297CC2339F0789405C02F5F7D
S1130F403F4F20313105D1F6CF910895F894E091C7
S1130F506601F091670186E0E63FF80711F47894A2
S1130F60089520E030E0C9010196DC01AA0FBB1FFF
S1130F70AA59BE4F4D915C91D901AA0FBB1FAA5922
S1130F80BE4F11965C934E938431910511F09C01F0
S1130F90EACF86EF96E090938F0180938E01789448
S1130FA0099508951F920F920FB60F921124EF9294
S1130FB0FF920F931F932F933F934F935F936F93DE
S1130FC07F938F939F93AF93BF93CF93DF93EF93CD
S1130FD0FF93C0E0D0E006EF16E0FE01DE01AA0FA9
S1130FE0BB1FAA0FBB1FAA5DBE4F8D919C91865F4C
S1130FF0964021F1DE01AA0FBB1FAA0FBB1FAA5DF9
S1131000BE4F12968D919C911397019739F0FD0173
S11310108281938101979383828310C0EE0FFF1F17
S1131020EE0FFF1FCF018A5D9E4F7C01FC01808182
S113103091810E941A07F701118300832196C03120
S1131040D10559F6FF91EF91DF91CF91BF91AF9107
S11310509F918F917F916F915F914F913F912F91CC
S11310601F910F91FF90EF900F900FBE0F901F9064
S11310701895E1E8F0E080818B6080838AEF90E04E
S11310809093890080938800EFE6F0E0808182608D
S11310908083789408958FE285B984B980E58CBD06
S11310A08DB581608DBD80E788B98FE487B982E111
S11310B08BB981E78AB9089597FB072E16F400943B
S11310C007D077FD09D00E94760807FC05D03EF4CE
S11310D0909581959F4F0895709561957F4F0895E0
S11310E0EE0FFF1F0590F491E02D0994AA1BBB1B82
S11310F051E107C0AA1FBB1FA617B70710F0A61B14
S1131100B70B881F991F5A95A9F780959095BC0134
S10B1110CD010895F894FFCF0E
S1131118EE010F00000000001E020F000000000096
S11111280C050C050C0548656C6C6F2000006E
S9030000FC
