S0120000536F727469726F766B612E73726563DE
S11300000C9403010C946D040C9420010C942001B5
S11300100C9420010C9420010C9420010C942001D8
S11300200C9420010C9420010C9420010C94BF0822
S11300300C9420010C9420010C9420010C942001B8
S11300400C9420010C9420010C943B010C949A0113
S11300500C947C010C9420010C9420010C9420013C
S11300600C94FA050C9420011806C607C607C607A7
S1130070C607C607C607C6072606C607C607C607B5
S1130080C607C607C607C6074506C607C607C60786
S1130090C607C607C607C6075D06C607C607C6075E
S11300A0C607C607C607C6078906C607C607C60722
S11300B0C607C607C607C6079706C607C607C60704
S11300C0C607C607C607C607D806C607C607C607B3
S11300D0C607C607C607C607E606C607C607C60795
S11300E0C607C607C607C607F306C607C607C60778
S11300F0C607C607C607C6070607C607C607C60754
S1130100C607C607C607C6071407C607C607C60735
S1130110C607C607C607C6073107C607C607C60708
S1130120C607C607C607C6074B07C607C607C607DE
S1130130C607C607C607C6074207C607C607C607D7
S1130140C607C607C607C6074B07C607C607C607BE
S1130150C607C607C607C6074207C607C607C607B7
S1130160C607C607C607C6075607C607C607C60793
S1130170C607C607C607C6076C07C607C607C6076D
S1130180C607C607C607C6075607C607C607C60773
S1130190C607C607C607C6076C07C607C607C6074D
S11301A0C607C607C607C6078507C607C607C60724
S11301B0C607C607C607C6079207C607C607C60707
S11301C0C607C607C607C6078907C607C607C60700
S11301D0C607C607C607C6079C07C607C607C607DD
S11301E0C607C607C607C607B307C607C607C607B6
S11301F0C607C607C607C607B3074352432065723E
S1130200726F7200000011241FBECFEFD8E0DEBF72
S1130210CDBF11E0A0E0B1E0E4E9F8E102C005904F
S11302200D92AC34B107D9F722E0ACE4B1E001C0DF
S11302301D92AD36B207E1F70E940F050C94480CED
S11302400C94000010920F0210920E0210921B02E6
S113025010921A021092C50083E38093C400E0EC6C
S1130260F0E080818D7F808386E08093C20088E9FE
S11302708093C10008951F920F920FB60F9211241C
S11302802F933F934F935F936F937F938F939F939A
S1130290AF93BF93EF93FF939091C60080910F02A9
S11302A08E3478F4E0910F0281E08E0F80930F0278
S11302B0F0E0E054FE4F908380911B028F5F8093A7
S11302C01B0280911B029091C101981304C08BE919
S11302D094E00E940708FF91EF91BF91AF919F9125
S11302E08F917F916F915F914F913F912F910F90DB
S11302F00FBE0F901F9018951F920F920FB60F927A
S113030011248F93EF93FF938091C00085FF0AC05F
S113031010920F0210921B025C98E1ECF0E08081D5
S11303208F798083FF91EF918F910F900FBE0F9083
S11303301F9018951F920F920FB60F9211248F934E
S11303409F93EF93FF9390910E0280911A02981756
S113035068F4E0910E0281E08E0F80930E02F0E0CB
S1130360E05FFD4F80818093C60005C0E1ECF0E0C2
S113037080818F7D8083FF91EF919F918F910F906A
S11303800FBE0F901F9018955D988FE193E0019731
S1130390F1F700C000005D9A5C9A8091C10085FF6E
S11303A004C08091C10086FD05C0E1ECF0E08081CD
S11303B08066808308957FEF760F662319F1E82F16
S11303C0F92F80E090E021912927322F32953F7058
S11303D0232730E0982F882782279327A901542FB9
S11303E044275295507F84279527220F331F229547
S11303F03295307F3227207F32278227932771500E
S113040010F7089580E090E00895EF92FF92CF9363
S1130410DF93873671F018F4882381F004C08E3698
S113042069F08F3611F0F12C0CC06894FF24F3F8B6
S113043008C00F2EF6E0FF2EF02D03C06894FF24B1
S1130440F2F82F2D30E0241B350B24303105B9F59B
S11304502F2D30E02E5F3F4F2B30310590F5EFB656
S1130460F894E0E1F2E091E09083F182828384E009
S113047083834115510579F0FB01A4E1B2E0CB017E
S1130480840F951F21912D93E817F907D9F7EA01F5
S1130490CC5EDD4F02C0C4E1D2E06F2D80E192E07A
S11304A00E94DB019883898310920E02F394F394E3
S11304B0F0921A02EFBE0E94C4018FEF03C080E0E5
S11304C001C080E0DF91CF91FF90EF9008952091DB
S11304D0600280916C02982F9F7B90936C028171D3
S11304E039F064E170E083E892E00E942E080895F8
S11304F080915E0280931C0280915D0280935E0273
S113050020935D02089580916C0286FF07C065E028
S113051070E083E892E00E942E0808952FB7F894C3
S113052080E480936C028093630210925F0281E006
S11305308093690287E692E09093370180933601B5
S1130540909333018093320185EA8093BC002FBFDE
S113055008951F93CF93DF9300D0CDB7DEB780917A
S11305605201882339F062E370E089EA92E00E9444
S11305702E08ABC080915101811108C080910E01F9
S113058090910F01892B09F4A0C002C0898309C08E
S113059041E050E0BE016F5F7F4F88E091E00E9430
S11305A0B50510924E0110924D0110924C018981B3
S11305B0883081F038F4823009F445C0843009F47D
S11305C04AC054C0803111F1813159F1893009F0A8
S11305D04DC00BC042E050E06FE471E088E091E070
S11305E00E94B50589E080935101E0914F01F0919B
S11305F0500181918A83F0935001E0934F0181115E
S113060037C019821092510110E435C042E050E025
S11306106FE471E088E091E00E94B50581E1809388
S11306205101E0914F01F091500184918A833196F8
S1130630F0935001E0934F0181111CC01982109274
S1130640510110E418C08AE090E090934E01809329
S11306504D0110E001C010E441E050E0BE016E5FC6
S11306607F4F88E091E00E94B50505C010E403C007
S113067010E401C010E48981882339F194E4909353
S11306802D0282E080932E0210932F02212F2061ED
S11306902093300226E42093310221E02093320299
S11306A02A8120933302909334028093350210936D
S11306B0360280E6809337028BE0809352011092D9
S11306C0530182E793E00E9407080F900F90DF9197
S11306D0CF911F91089510924C0189EA92E00E94F3
S11306E007080895CF93CFB7F89480914C018111F6
S11306F077C0E0915301E1110BC080916C0286FF39
S113070007C065E070E082E793E00E942E0868C0AD
S113071080915201E81708F044C084E480936C028D
S113072082E793E0909337018093360190933301ED
S11307308093320110925F02AE2FB0E0A35DBD4FF3
S11307408C918093630252E05E0F50935301EF5FEC
S1130750F0E0E35DFD4F40814423C9F090E0242F95
S1130760290F892F352F391BE82FF0E0E05AFD4F70
S1130770A32FA80FB0E0A35DBD4F9C9190838F5F22
S11307808213F2CF20935F02450F4093530180916F
S11307905F028093690210925F0285EA8093BC0035
S11307A01FC080916C028F7B80936C021092520167
S11307B01092530160914D0170914E0161157105C4
S11307C059F08BE693E00E942E0881E080934C015F
S11307D010924E0110924D0189EA92E00E9407089E
S11307E0CFBFCF91089588E091E00E94320580E068
S11307F091E00E9432050895CF93C82F62E088E00B
S113080091E00E947E056C2F88E091E00E947E05B5
S113081089EA92E00E940708CF91089561708F736E
S113082090E4699F800D112480680E94FC03089560
S1130830CF93DF9300D0CDB7DEB79A83898368E086
S113084088E091E00E947E0542E050E0BE016F5FC7
S11308507F4F88E091E00E943A0589EA92E00E9485
S113086007080F900F90DF91CF910895CF93DF93F6
S113087000D0CDB7DEB79A83898360E188E091E048
S11308800E947E0542E050E0BE016F5F7F4F88E02A
S113089091E00E943A0589EA92E00E9407080F90CD
S11308A00F90DF91CF91089562E088E091E00E947B
S11308B07E0561E088E091E00E947E0562E088E0C8
S11308C091E00E947E056EE088E091E00E947E0542
S11308D089EA92E00E94070808951F920F920FB6CA
S11308E00F9211242F933F934F935F936F937F93B2
S11308F08F939F93AF93BF93EF93FF9383E892E01B
S11309000E940708FF91EF91BF91AF919F918F9142
S11309107F916F915F914F913F912F910F900FBEF7
S11309200F901F90189540E050E060E070E080E088
S11309300E9405020895CF93DF9381E00E94FC0397
S1130940C1ECD1E0688180EC91E00E94DB01E88198
S1130950F0E0E054FE4F2181408130E0342B8217D7
S1130960930709F04FC08091EE019091EF019093AD
S113097055018093540180915401909155019F93A6
S11309808F93E6ECF1E081818F9380818F9388E3EC
S113099091E09F938F9381E291E09F938F930E94C4
S11309A0770981E291E00E941804E0EDF1E0818191
S11309B08F9380818F93EEECF1E081818F9380811E
S11309C08F93ECECF1E081818F9380818F938FE39F
S11309D091E09F938F9380E191E09F938F930E9486
S11309E0770961E080E00E940E0480E191E00E94BA
S11309F018048DB79EB742960FB6F8949EBF0FBEEB
S1130A008DBF04C08AEF91E00E94360468EE73E063
S1130A1083E994E00E942E08DF91CF91089528E2A3
S1130A2088E190E00FB6F894A895809360000FBE1B
S1130A30209360000E9438090E94D7070E94220177
S1130A400E94F3030E94E4070E9426090E945404B2
S1130A5064E670E083E994E00E942E08A8950E9461
S1130A609308FCCFFC018081918195838483178254
S1130A7016820895EF92FF920F931F93CF93DF9303
S1130A80FC01EB019A01E080F180628173818B01AA
S1130A90015011090E0D1F1D4681578184819581D6
S1130AA08E199F09840F951F0E944909D701A80F29
S1130AB0B91F12161306D4F40A171B0710F4A081E9
S1130AC0B18186819781892B29F0848195818A1748
S1130AD09B0761F089918D93868197810196978315
S1130AE08683215031092115310531F7C901DF9180
S1130AF0CF911F910F91FF90EF9008950F931F9343
S1130B00CF93DF93FC01462FC081D18122813381B1
S1130B100481158186819781B8016C1B7D0B860F3A
S1130B20971FB9010E9449098C0F9D1F215031095B
S1130B302C0F3D1F2817390708F0EC018681978197
S1130B40892B19F0C017D10749F048838681978112
S1130B5001969783868380E090E002C081E090E074
S1130B60DF91CF911F910F9108950F931F93CF930E
S1130B70DF93FC010281138101501109808191816D
S1130B80080F191F1416150654F586819781181637
S1130B90190644F5A62FB72F80E090E0C481D581D3
S1130BA028812D93248135812F5F3F4F3583248302
S1130BB06681778161507109778366830217130711
S1130BC020F420813181358324830196841795078D
S1130BD059F0268137811216130604F305C080E00C
S1130BE090E002C080E090E0DF91CF911F910F91DF
S1130BF0089508951F920F920FB60F9211242F9308
S1130C003F934F935F936F937F938F939F93AF9390
S1130C10BF93EF93FF938091B900887F90E0893C64
S1130C20910508F0B3C1FC01EC5CFF4F0C945D0925
S1130C3080916C02816080936C0285E98093BC0092
S1130C40E0913201F09133010995A0C15D988FE8DC
S1130C5091E00197F1F700C000005D9A80916C0269
S1130C608C7031F48091630281608093630205C0CB
S1130C70809163028E7F80936302809163028093EC
S1130C80BB0085E88093BC0081C180916C028C70AC
S1130C90883031F48091630281608093630205C0DF
S1130CA0809163028E7F80936302809163028093BC
S1130CB0BB0085E88093BC0069C180916C028C7094
S1130CC0843081F4E0915F02F0E0E05AFD4F8081CE
S1130CD08093BB0080915F028F5F80935F0285E801
S1130CE08093BC0080916C028C70883009F04EC1F6
S1130CF0E0916802F0E0EA59FD4F80818093BB00E7
S1130D00809168028F5F8093680285E88093BC00BD
S1130D103DC180916C02806180936C0285E980936F
S1130D20BC00E0913201F091330109952FC180910B
S1130D306C028C708430E9F4E0915F028091690266
S1130D40E81309C085E98093BC00E0913601F09175
S1130D50370109950EC0F0E0E05AFD4F8081809381
S1130D60BB0080915F028F5F80935F0285E8809370
S1130D70BC0080916C028C70883009F007C1E0914E
S1130D80680280916502E81304C085EA8093BC0080
S1130D90FDC0F0E0EA59FD4F80818093BB00809153
S1130DA068028F5F8093680285E88093BC00EEC080
S1130DB080916C02826080936C0285E98093BC0010
S1130DC0E0913601F09137010995E0C080916C0201
S1130DD0806280936C0210925F021092680285EA2E
S1130DE08093BC00D3C020915F0230E02F5F3F4F5F
S1130DF08091690290E02817390721F485E88093EF
S1130E00BC00C4C085EC8093BC00C0C080916C025F
S1130E10806180936C0285E98093BC00E09132018B
S1130E20F09133010995B2C020915F028091BB001B
S1130E30E22FF0E0E05AFD4F80832F5F20935F02A2
S1130E4030E02F5F3F4F8091690290E02817390707
S1130E5021F485E88093BC0099C085EC8093BC00A4
S1130E6095C08091BB00E0915F02F0E0E05AFD4F35
S1130E70808385E98093BC00E0913601F0913701CD
S1130E80099584C080916C02806A80936C021092F0
S1130E905F021092680280916C02806480936C02FD
S1130EA010926A0285E88093BC0070C080916A0247
S1130EB09091BB00E82FF0E0E559FD4F90838F5FE0
S1130EC080936A02811104C085E88093BC005EC0EF
S1130ED085EC8093BC005AC08091BB00E0916A020B
S1130EE0F0E0E559FD4F808380916C02882324F45F
S1130EF085EE8093BC0003C085EC8093BC00E09138
S1130F003401F0913501099541C085EC8093BC0012
S1130F103DC080916C02806A80936C0210925F02E3
S1130F201092680210926A02809164028093BB005E
S1130F3085E88093BC002AC0E0916A02EF5FE093E9
S1130F406A02F0E0EC59FD4F80818093BB008091F0
S1130F506A02811104C085E88093BC0017C081EC4B
S1130F608093BC0013C080916C0288233CF48F777B
S1130F7080936C0285EE8093BC0003C085EC809363
S1130F80BC00E0913401F09135010995FF91EF9196
S1130F90BF91AF919F918F917F916F915F914F918D
S1130FA03F912F910F900FBE0F901F90189588B10D
S1130FB0806388B987B18F7C87B988E48093B8004F
S1130FC01092B9000895089580E090E023EE37E090
S1130FD0FC01EE0FFF1FEA56FE4F3183208301967A
S1130FE085319105A9F780E090E023EE37E0FC011C
S1130FF0EE0FFF1FEE0FFF1FEA5AFE4F31832083CF
S11310001382128201968031910589F708950FB6F3
S113101007FE0CC0F894A1E00AC02F5F3F4F2531B2
S1131020310539F4AA23C9F078940895A0E020E0AA
S113103030E0F901EE0FFF1FEA56FE4F4081518167
S1131040435E574051F7F901EE0FFF1FEA56FE4F7A
S113105091838083AA2309F078940895CF930FB6DF
S113106007FE03C0F894C1E001C0C0E0209156011E
S1131070309157012817390781F021E030E0D90178
S1131080F901EE0FFF1FEE0FFF1FEA5AFE4F4081DA
S113109051814817590789F402C0A0E0B0E0AA0FB3
S11310A0BB1FAA0FBB1FAA5ABE4F13967C936E9305
S11310B01297CC23B1F1789434C02F5F3F4F203185
S11310C03105E9F62091560130915701235E3740EE
S11310D081F021E030E0D901F901EE0FFF1FEE0F9E
S11310E0FF1FEA5AFE4F40815181435E5740A1F4ED
S11310F002C0A0E0B0E0AA0FBB1FAA0FBB1FAA5AF0
S1131100BE4F11969C938E9313967C936E93129775
S1131110CC2339F0789405C02F5F3F4F203131053F
S1131120D1F6CF910895F894E0919601F09197014A
S113113087E0E33EF80711F47894089520E030E066
S1131140C9010196DC01AA0FBB1FAA56BE4F4D91DF
S11311505C91D901AA0FBB1FAA56BE4F11965C938E
S11311604E938431910511F09C01EACF83EE97E010
S11311709093BF018093BE017894099508951F92BE
S11311800F920FB60F921124EF92FF920F931F93B9
S11311902F933F934F935F936F937F938F939F937B
S11311A0AF93BF93CF93DF93EF93FF93C0E0D0E06F
S11311B003EE17E0FE01DE01AA0FBB1FAA0FBB1F3F
S11311C0AA5ABE4F8D919C91835E974021F1DE0116
S11311D0AA0FBB1FAA0FBB1FAA5ABE4F12968D910E
S11311E09C911397019739F0FD01828193810197B6
S11311F09383828310C0EE0FFF1FEE0FFF1FCF01FA
S11312008A5A9E4F7C01FC01808191810E940708CB
S1131210F701118300832196C031D10559F6FF915E
S1131220EF91DF91CF91BF91AF919F918F917F917A
S11312306F915F914F913F912F911F910F91FF906B
S1131240EF900F900FBE0F901F901895E1E8F0E01B
S113125080818B6080838AEF90E0909389008093F3
S11312608800EFE6F0E080818260808378940895BE
S11312708FE285B984B980E58CBD8DB581608DBD63
S113128080E788B98FE487B982E18BB981E78AB9AD
S1131290089597FB072E16F4009407D077FD09D024
S11312A00E94630907FC05D03EF4909581959F4FF9
S11312B00895709561957F4F0895EE0FFF1F059077
S11312C0F491E02D0994AA1BBB1B51E107C0AA1F8E
S11312D0BB1FA617B70710F0A61BB70B881F991FD3
S11312E05A95A9F780959095BC01CD010895AEE07B
S11312F0B0E0EDE7F9E00C941F0C0D891E8986E03F
S11313008C831A8309838FEF9FE79E838D83AE01BD
S1131310475E5F4F6F89788DCE0101960E949909CF
S1131320EF81F885E00FF11F10822E96E4E00C9413
S11313303B0CACE0B0E0EFE9F9E00C94110C7C015B
S11313406B018A01FC0117821682838181FFBDC172
S1131350CE0101964C01F7019381F60193FD85912D
S113136093FF81916F01882309F4ABC1853239F46D
S113137093FD859193FF81916F01853229F4B70123
S113138090E00E94810BE7CF512C312C20E02032D9
S1131390A0F48B3269F030F4803259F0833269F46E
S11313A020612CC08D3239F0803339F4216026C09D
S11313B02260246023C0286021C027FD27C030EDAF
S11313C0380F3A3078F426FF06C0FAE05F9E300DFD
S11313D01124532E13C08AE0389E300D1124332E6D
S11313E020620CC08E3221F426FD6BC1206406C03D
S11313F08C3611F4206802C0883641F4F60193FD5E
S1131400859193FF81916F018111C1CF982F9F7DA9
S11314109554933028F40C5F1F4FFFE3F9830DC0FC
S1131420833631F0833771F0833509F05BC022C015
S1131430F801808189830E5F1F4F44244394512C0B
S1131440540115C03801F2E06F0E711CF801A08040
S1131450B18026FF03C0652D70E002C06FEF7FEFFF
S1131460C5012C870E94760B2C0183012C852F77D4
S1131470222E17C03801F2E06F0E711CF801A08013
S1131480B18026FF03C0652D70E002C06FEF7FEFCF
S1131490C5012C870E946B0B2C012C852068222E01
S11314A0830123FC1BC0832D90E048165906B0F439
S11314B0B70180E290E00E94810B3A94F4CFF501E9
S11314C027FC859127FE81915F01B70190E00E947E
S11314D0810B31103A94F1E04F1A51084114510430
S11314E071F7E5C0843611F0893639F5F80127FF24
S11314F007C060817181828193810C5F1F4F08C096
S113150060817181882777FD8095982F0E5F1F4F2A
S11315102F76B22E97FF09C09095809570956195AE
S11315207F4F8F4F9F4F2068B22E2AE030E0A401F6
S11315300E94B30BA82EA81844C0853729F42F7E27
S1131540B22E2AE030E025C0F22FF97FBF2E8F366D
S1131550C1F018F4883579F0B4C0803719F08837B1
S113156021F0AFC02F2F2061B22EB4FE0DC08B2D01
S11315708460B82E09C024FF0AC09F2F9660B92E3C
S113158006C028E030E005C020E130E002C020E1E0
S113159032E0F801B7FE07C06081718182819381D6
S11315A00C5F1F4F06C06081718180E090E00E5F88
S11315B01F4FA4010E94B30BA82EA818FB2DFF7780
S11315C0BF2EB6FE0BC02B2D2E7FA51450F4B4FEF7
S11315D00AC0B2FC08C02B2D2E7E05C07A2C2B2D00
S11315E003C07A2C01C0752C24FF0DC0FE01EA0D46
S11315F0F11D8081803311F4297E09C022FF06C0C9
S11316007394739404C0822F867809F0739423FD35
S113161013C020FF06C05A2C731418F4530C571827
S1131620732C731468F4B70180E290E02C870E9455
S1131630810B73942C85F5CF731410F4371801C003
S1131640312C24FF12C0B70180E390E02C870E9464
S1131650810B2C8522FF17C021FF03C088E590E091
S113166002C088E790E0B7010CC0822F867859F059
S113167021FD02C080E201C08BE227FD8DE2B701AB
S113168090E00E94810BA51438F4B70180E390E048
S11316900E94810B5A94F7CFAA94F401EA0DF11D2C
S11316A08081B70190E00E94810BA110F5CF332017
S11316B009F451CEB70180E290E00E94810B3A9484
S11316C0F6CFF7018681978102C08FEF9FEF2C96AA
S11316D0E2E10C942D0CFC01059061507040011066
S11316E0D8F7809590958E0F9F1F0895FC01615047
S11316F0704001900110D8F7809590958E0F9F1F30
S113170008950F931F93CF93DF93182F092FEB01A5
S11317108B8181FD03C08FEF9FEF20C082FF10C03B
S11317204E815F812C813D81421753077CF4E8810F
S1131730F9819F012F5F3F4F39832883108306C0AF
S1131740E885F985812F0995892B29F72E813F8119
S11317502F5F3F4F3F832E83812F902FDF91CF91B7
S11317601F910F910895FA01AA27283051F12031D1
S113177081F1E8946F936E7F6E5F7F4F8F4F9F4F21
S1131780AF4FB1E03ED0B4E03CD0670F781F891F63
S11317909A1FA11D680F791F8A1F911DA11D6A0F31
S11317A0711D811D911DA11D20D009F468943F91E4
S11317B02AE0269F11243019305D3193DEF6CF01E3
S11317C00895462F4770405D4193B3E00FD0C9F7A9
S11317D0F6CF462F4F70405D4A3318F0495D31FD16
S11317E04052419302D0A9F7EACFB4E0A695979569
S11317F0879577956795BA95C9F70097610571053F
S113180008959B01AC010A2E069457954795379588
S11318102795BA95C9F7620F731F841F951FA01DE2
S113182008952F923F924F925F926F927F928F9280
S11318309F92AF92BF92CF92DF92EF92FF920F935B
S11318401F93CF93DF93CDB7DEB7CA1BDB0B0FB665
S1131850F894DEBF0FBECDBF09942A883988488822
S11318605F846E847D848C849B84AA84B984C884B8
S1131870DF80EE80FD800C811B81AA81B981CE0FAF
S1131880D11D0FB6F894DEBF0FBECDBFED01089594
S1071890F894FFCFF6
S11318941E020F00000000004E020F0000000000B2
S11318A4303132333435363738394142434445468E
S11318B400303132333435363738394142434445C4
S11318C44600F905F905F905256420257564002504
S10F18D4336420253364202533640000B5
S9030000FC
