S0120000536F727469726F766B612E73726563DE
S11300000C94FD000C941A010C941A010C941A011E
S11300100C941A010C941A010C941A010C941A01F0
S11300200C941A010C941A010C941A010C94DD041A
S11300300C941A010C941A010C941A010C941A01D0
S11300400C941A010C941A010C941C010C94850153
S11300500C9467010C941A010C941A010C941A0163
S11300600C94D4010C941A0105024A044A044A046B
S11300704A044A044A044A0416024A044A044A0442
S11300804A044A044A044A0435024A044A044A0413
S11300904A044A044A044A0455024A044A044A04E3
S11300A04A044A044A044A0495024A044A044A0493
S11300B04A044A044A044A04A6024A044A044A0472
S11300C04A044A044A044A0404034A044A044A0403
S11300D04A044A044A044A0415034A044A044A04E2
S11300E04A044A044A044A0424034A044A044A04C3
S11300F04A044A044A044A043E034A044A044A0499
S11301004A044A044A044A044F034A044A044A0477
S11301104A044A044A044A047A034A044A044A043C
S11301204A044A044A044A049B034A044A044A040B
S11301304A044A044A044A0492034A044A044A0404
S11301404A044A044A044A049B034A044A044A04EB
S11301504A044A044A044A0492034A044A044A04E4
S11301604A044A044A044A04A8034A044A044A04BE
S11301704A044A044A044A04C9034A044A044A048D
S11301804A044A044A044A04A8034A044A044A049E
S11301904A044A044A044A04C9034A044A044A046D
S11301A04A044A044A044A04EB034A044A044A043B
S11301B04A044A044A044A04FA034A044A044A041C
S11301C04A044A044A044A04F1034A044A044A0415
S11301D04A044A044A044A040E044A044A044A04E7
S11301E04A044A044A044A042F044A044A044A04B6
S11301F04A044A044A044A042F0411241FBECFEFC0
S1130200D8E0DEBFCDBF11E0A0E0B1E0E6EFFAE058
S113021002C005900D92A630B107D9F721E0A6E0FF
S1130220B1E001C01D92AA3DB207E1F70E94B701F7
S11302300C9479050C9400001F920F920FB60F9244
S113024011242F933F934F935F936F937F938F93D7
S11302509F93AF93BF93EF93FF934091C600209178
S1130260BF018091CB0130E090E001972817390756
S11302707CF4E091BF0181E08E0F8093BF01F0E038
S1130280E059FE4F40838091CB018F5F8093CB0177
S11302902091CB0130E08091710190E00296281703
S11302A0390724F08CEC91E00E948A04FF91EF91CD
S11302B0BF91AF919F918F917F916F915F914F917A
S11302C03F912F910F900FBE0F901F9018951F9282
S11302D00F920FB60F9211248F93EF93FF93809197
S11302E0C00085FF0AC02C9AE1ECF0E080818F7990
S11302F080831092BF011092CB01FF91EF918F91F7
S11303000F900FBE0F901F9018951F920F920FB66B
S11303100F9211242F933F938F939F93EF93FF9307
S11303202091BE018091CA0130E090E00197281726
S113033039076CF4E091BE0181E08E0F8093BE0119
S1130340F0E0E054FE4F80818093C60005C0E1ECEC
S1130350F0E080818F7D8083FF91EF919F918F9159
S11303603F912F910F900FBE0F901F90189528E288
S113037088E190E00FB6F894A895809360000FBED2
S1130380209360000E9456050E9467040E94440561
S1130390A8950E94B104FCCF80917201811103C021
S11303A081E08093700108951F920F9200905F0086
S11303B00F9211242F933F934F935F936F937F93E7
S11303C08F939F93AF93BF93EF93FF93CF93DF9359
S11303D0CDB7DEB789EB90E0FC018081882F90E0F7
S11303E0887F9927AA2797FDA095BA2F40E050E06F
S11303F028EC30E0841B950B2817390708F44AC20F
S11304008C5C9F4FFC010C9473058091D901816031
S11304108093D9018CEB90E025EDFC012083809141
S1130420040190910501FC01099535C28091D9011F
S1130430882F90E08C709927009731F48091D00137
S113044081608093D00105C08091D0018E7F80931C
S1130450D0018BEB90E02091D001FC0120838CEB48
S113046090E025ECFC01208316C28091D901882FED
S113047090E08C7099278830910531F48091D001F7
S113048081608093D00105C08091D0018E7F8093DC
S1130490D0018BEB90E02091D001FC0120838CEB08
S11304A090E025ECFC012083F6C18091D901882FCE
S11304B090E08C70992784309105B1F48BEB90E037
S11304C02091CC01222F30E023533E4FF9012081AB
S11304D0FC0120838091CC018F5F8093CC018CEB55
S11304E090E025ECFC0120838091D901882F90E0D5
S11304F08C70992788309105B9F48BEB90E02091AA
S1130500D501222F30E02D523E4FF9012081FC010C
S113051020838091D5018F5F8093D5018CEB90E08F
S113052025ECFC012083B7C1B6C18091D90180615B
S11305308093D9018CEB90E025EDFC012083809120
S1130540040190910501FC010995A5C18091D9018F
S1130550882F90E08C7099278430910541F5909113
S1130560CC018091D601981761F48CEB90E025EDD5
S1130570FC0120838091000190910101FC01099507
S113058016C08BEB90E02091CC01222F30E0235356
S11305903E4FF9012081FC0120838091CC018F5FC3
S11305A08093CC018CEB90E025ECFC0120838091BE
S11305B0D901882F90E08C7099278830910519F51E
S11305C09091D5018091D201981731F48CEB90E091
S11305D025EEFC01208317C08BEB90E02091D50120
S11305E0222F30E02D523E4FF9012081FC0120835F
S11305F08091D5018F5F8093D5018CEB90E025EC41
S1130600FC01208348C147C18091D9018260809355
S1130610D9018CEB90E025EDFC0120838091000151
S113062090910101FC01099536C18091D901806244
S11306308093D9011092CC011092D5018CEB90E0FB
S113064025EEFC01208327C18091CC01882F90E006
S11306509C012F5F3F4F8091D601882F90E028178F
S1130660390731F48CEB90E025E8FC01208313C1B9
S11306708CEB90E025ECFC0120830DC18091D90125
S113068080618093D9018CEB90E025EDFC012083FF
S11306908091040190910501FC010995FCC08091B1
S11306A0CC01882F90E02BEB30E0F90120818353BB
S11306B09E4FFC0120838091CC018F5F8093CC01FD
S11306C08091CC01882F90E09C012F5F3F4F809157
S11306D0D601882F90E02817390731F48CEB90E08D
S11306E025E8FC012083D7C08CEB90E025ECFC01CD
S11306F02083D1C08091CC01882F90E02BEB30E097
S1130700F901208183539E4FFC0120838CEB90E000
S113071025EDFC0120838091000190910101FC01F1
S11307200995B9C08091D901806A8093D90110924A
S1130730CC011092D5018091D90180648093D901B4
S11307401092D7018CEB90E025E8FC012083A3C034
S11307508091D701882F90E02BEB30E0F9012081C4
S113076088529E4FFC0120838091D7018F5F809334
S1130770D7018091D701882331F48CEB90E025E8F0
S1130780FC01208388C08CEB90E025ECFC012083E5
S113079082C08091D701882F90E02BEB30E0F901E3
S11307A0208188529E4FFC0120838091D9018823A7
S11307B034F48CEB90E025EEFC01208305C08CEB37
S11307C090E025ECFC0120838091020190910301CB
S11307D0FC01099560C08CEB90E025ECFC012083C2
S11307E05AC08091D901806A8093D9011092CC01BA
S11307F01092D5011092D7018BEB90E02091D70194
S1130800222F30E02F523E4FF9012081FC0120833A
S11308108CEB90E025E8FC0120833DC08091D7015A
S11308208F5F8093D7018BEB90E02091D701222F2B
S113083030E02F523E4FF9012081FC01208380914A
S1130840D701882331F48CEB90E025E8FC01208368
S113085022C08CEB90E021ECFC0120831CC0809131
S1130860D90188235CF48091D9018F778093D901D1
S11308708CEB90E025EEFC01208305C08CEB90E02E
S113088025ECFC0120838091020190910301FC017D
S1130890099501C00000DF91CF91FF91EF91BF91C5
S11308A0AF919F918F917F916F915F914F913F9104
S11308B02F910F9000925F000F901F901895CF9387
S11308C0DF93CDB7DEB7DF91CF910895089580E02F
S11308D090E026E634E0FC01EE0FFF1FEA5BFE4FDA
S11308E031832083019685319105A9F780E090E05A
S11308F026E634E0FC01EE0FFF1FEE0FFF1FEA5F58
S1130900FE4F318320831382128201968031910538
S113091089F708950FB607FE0CC0F894A1E00AC049
S11309202F5F3F4F2531310539F4AA23C9F078945C
S11309300895A0E020E030E0F901EE0FFF1FEA5B2C
S1130940FE4F408151814656544051F7F901EE0F54
S1130950FF1FEA5BFE4F91838083AA2309F07894FA
S11309600895F894E0914601F091470184E0E63659
S1130970F80711F47894089520E030E0C901019655
S1130980DC01AA0FBB1FAA5BBE4F4D915C91D9013C
S1130990AA0FBB1FAA5BBE4F11965C934E93843182
S11309A0910511F09C01EACF86E694E090936F01E3
S11309B080936E017894099508951F920F920FB653
S11309C00F921124EF92FF920F931F932F933F9353
S11309D04F935F936F937F938F939F93AF93BF9343
S11309E0CF93DF93EF93FF93C0E0D0E006E614E0EB
S11309F0FE01DE01AA0FBB1FAA0FBB1FAA5FBE4FD9
S1130A008D919C918656944021F1DE01AA0FBB1F63
S1130A10AA0FBB1FAA5FBE4F12968D919C9113978C
S1130A20019739F0FD018281938101979383828339
S1130A3010C0EE0FFF1FEE0FFF1FCF018A5F9E4F06
S1130A407C01FC01808191810E948A04F701118359
S1130A5000832196C031D10559F6FF91EF91DF91C2
S1130A60CF91BF91AF919F918F917F916F915F9142
S1130A704F913F912F911F910F91FF90EF900F9005
S1130A800FBE0F901F901895E1E8F0E080818B6015
S1130A9080838AEF90E09093890080938800EFE64A
S1130AA0F0E0808182608083789408958FE285B934
S1130AB084B980E58CBD8DB581608DBD80E788B932
S1130AC08FE787B982E18BB981E78AB988B18063FE
S1130AD088B987B18F7C87B98FEF8093B80083E0A2
S1130AE08093B9000895EE0FFF1F0590F491E02D57
S1090AF00994F894FFCF05
S1090AF65F045F045F04CD
S9030000FC
