S0120000536F727469726F766B612E73726563DE
S11300000C9444010C9414050C9461010C9461014A
S11300100C9461010C9461010C9461010C946101D4
S11300200C9461010C9461010C9461010C942B0BF0
S11300300C9461010C9461010C9461010C946101B4
S11300400C9461010C9461010C947C010C94DB010F
S11300500C94BD010C9461010C9461010C94610138
S11300600C946C080C9461018A08300A300A300A36
S1130070300A300A300A300A9808300A300A300A46
S1130080300A300A300A300AAF08300A300A300A1F
S1130090300A300A300A300AC708300A300A300AF7
S11300A0300A300A300A300AF308300A300A300ABB
S11300B0300A300A300A300A0109300A300A300A9C
S11300C0300A300A300A300A4209300A300A300A4B
S11300D0300A300A300A300A5009300A300A300A2D
S11300E0300A300A300A300A5D09300A300A300A10
S11300F0300A300A300A300A7009300A300A300AED
S1130100300A300A300A300A7E09300A300A300ACE
S1130110300A300A300A300A9B09300A300A300AA1
S1130120300A300A300A300AB509300A300A300A77
S1130130300A300A300A300AAC09300A300A300A70
S1130140300A300A300A300AB509300A300A300A57
S1130150300A300A300A300AAC09300A300A300A50
S1130160300A300A300A300AC009300A300A300A2C
S1130170300A300A300A300AD609300A300A300A06
S1130180300A300A300A300AC009300A300A300A0C
S1130190300A300A300A300AD609300A300A300AE6
S11301A0300A300A300A300AEF09300A300A300ABD
S11301B0300A300A300A300AFC09300A300A300AA0
S11301C0300A300A300A300AF309300A300A300A99
S11301D0300A300A300A300A060A300A300A300A75
S11301E0300A300A300A300A1D0A300A300A300A4E
S11301F0300A300A300A300A1D0A4D454E553A007D
S113020068020E02480268020454696D6500000227
S113021068024802680203446174650068022A02A5
S11302205A0268020652656164001C0268025A029E
S113023068020557726974650068024802680268BA
S1130240020252657365740039025A0268020E0292
S11302500053657474696E6773004802680268022B
S11302602A020054657374000000000000000000BE
S113027000006E6F20616E73776572000043524315
S1130280206572726F72000011241FBECFEFD8E098
S1130290DEBFCDBF11E0A0E0B1E0E0EFFFE102C0BE
S11302A005900D92A035B107D9F722E0A0E5B1E0A1
S11302B001C01D92A73AB207E1F70E9474070C949B
S11302C0F60F0C9400001092150210921402109272
S11302D02102109220021092C50083E38093C4008F
S11302E0E0ECF0E080818D7F808386E08093C20023
S11302F088E98093C10008951F920F920FB60F9260
S113030011242F933F934F935F936F937F938F9316
S11303109F93AF93BF93EF93FF939091C600809107
S113032015028E3478F4E091150281E08E0F8093EB
S11303301502F0E0EA53FE4F9083809121028F5F13
S113034080932102809121029091C701981304C0E7
S11303508EEF96E00E94710AFF91EF91BF91AF91E9
S11303609F918F917F916F915F914F913F912F91C9
S11303700F900FBE0F901F9018951F920F920FB6FB
S11303800F9211248F93EF93FF938091C00085FF08
S11303900AC010921502109221025C98E1ECF0E080
S11303A080818F798083FF91EF918F910F900FBEA1
S11303B00F901F9018951F920F920FB60F92112451
S11303C08F939F93EF93FF93909114028091200257
S11303D0981768F4E091140281E08E0F8093140260
S11303E0F0E0EA5EFD4F80818093C60005C0E1EC39
S11303F0F0E080818F7D8083FF91EF919F918F91B9
S11304000F900FBE0F901F9018955C9A8091C100B9
S113041085FF04C08091C10086FD05C0E1ECF0E0D9
S113042080818066808308957FEF760F662319F1BB
S1130430E82FF92F80E090E021912927322F32957F
S11304403F70232730E0982F882782279327A9011C
S1130450542F44275295507F84279527220F331F0A
S113046022953295307F3227207F322782279327A7
S1130470715010F7089580E090E00895EF92FF9294
S1130480CF93DF93873671F018F4882381F004C08A
S11304908E3669F08F3611F0F12C0CC06894FF246D
S11304A0F3F808C00F2EF6E0FF2EF02D03C0689479
S11304B0FF24F2F82F2D30E0241B350B24303105B6
S11304C0B9F52F2D30E02E5F3F4F2B30310590F5DD
S11304D0EFB6F894E6E1F2E091E09083F182828352
S11304E084E083834115510579F0FB01AAE1B2E070
S11304F0CB01840F951F21912D93E817F907D9F7A4
S1130500EA01C65EDD4F02C0CAE1D2E06F2D86E18A
S113051092E00E9414029883898310921402F39447
S1130520F394F0922002EFBE0E9405028FEF03C005
S113053080E001C080E0DF91CF91FF90EF900895BB
S1130540E89A089580917402982F9F7B9093740287
S1130550817139F062E370E088EB92E00E94980ABE
S11305600895E9E6F0E0808182608083E89A089546
S11305708091740286FF07C062E370E088EB92E02A
S11305800E94980A089584E48093740280E480931E
S11305906B021092620281E0809371028FEF80936C
S11305A0630282EA92E09093390180933801909338
S11305B035018093340185EA8093BC0008958091CD
S11305C0740286FF07C065E070E08FED92E00E9440
S11305D0980A08952FB7F89480E480937402809366
S11305E06B021092620281E0809371028FE494E0C6
S11305F090933901809338019093350180933401AD
S113060085EA8093BC002FBF08951F93CF93DF9397
S113061000D0CDB7DEB780915701882339F062E36B
S113062070E085E093E00E94980AABC08091560187
S1130630811108C080910E0190910F01892B09F45A
S1130640A0C002C0898309C041E050E0BE016F5FD1
S11306507F4F88E091E00E94270810925301109286
S11306605201109251018981883081F038F482302E
S113067009F445C0843009F44AC054C0803111F1F2
S1130680813159F1893009F04DC00BC042E050E08E
S113069064E571E088E091E00E94270889E0809396
S11306A05601E0915401F091550181918A83F093B0
S11306B05501E0935401811137C0198210925601FB
S11306C010E435C042E050E064E571E088E091E078
S11306D00E94270881E180935601E0915401F09132
S11306E0550184918A833196F0935501E093540126
S11306F081111CC019821092560110E418C08AE0BE
S113070090E0909353018093520110E001C010E4F3
S113071041E050E0BE016E5F7F4F88E091E00E94AF
S1130720270805C010E403C010E401C010E4898167
S1130730882339F194E49093310282E08093320269
S113074010933302212F20612093340226E4209356
S1130750350221E0209336022A81209337029093B8
S113076038028093390210933A0280E680933B0268
S11307708BE080935701109258018EEC93E00E9415
S1130780710A0F900F90DF91CF911F9108951092ED
S1130790510185E093E00E94710A0895CF93CFB789
S11307A0F89480915101811177C0E0915801E111D1
S11307B00BC08091740286FF07C065E070E08EEC88
S11307C093E00E94980A68C080915701E81708F0E6
S11307D044C084E4809374028EEC93E090933901D6
S11307E08093380190933501809334011092620212
S11307F0AE2FB0E0AF5CBD4F8C9180936B0252E0A2
S11308005E0F50935801EF5FF0E0EF5CFD4F4081C5
S11308104423C9F090E0242F290F892F352F391B49
S1130820E82FF0E0ED59FD4FA32FA80FB0E0AF5C27
S1130830BD4F9C9190838F5F8213F2CF209362020D
S1130840450F409358018091620280937102109287
S1130850620285EA8093BC001FC0809174028F7B82
S113086080937402109257011092580160915201C2
S1130870709153016115710559F087EC93E00E9462
S1130880980A81E080935101109253011092520111
S113089085E093E00E94710ACFBFCF910895DF9263
S11308A0EF92FF920F931F93CF93DF93D090630245
S11308B0D09480917402982F9F7B909374028171DD
S11308C039F062E370E08FED92E00E94980A22C052
S11308D0C0E0D0E00D2D10E0EE24E394F12CC8012B
S11308E00C2E02C0959587950A94E2F780FF0EC0FE
S11308F0B7010C2E02C0660F771F0A94E2F76D2130
S11309006093500170E081E00E94A70C2196C830EA
S1130910D10529F7DF91CF911F910F91FF90EF90AF
S1130920DF90089588E091E00E94A40780E091E0C0
S11309300E94A4070895CF93C82F62E088E091E055
S11309400E94F0076C2F88E091E00E94F00785E098
S113095093E00E94710ACF91089581E00E949B0464
S113096085E093E00E94710A089561708F7390E4AA
S1130970699F800D112480680E949B040895CF9381
S1130980DF9300D0CDB7DEB79A83898368E088E02F
S113099091E00E94F00742E050E0BE016F5F7F4F9C
S11309A088E091E00E94AC0785E093E00E94710A20
S11309B00F900F90DF91CF910895CF93DF9300D0E4
S11309C0CDB7DEB79A83898360E188E091E00E9425
S11309D0F00742E050E0BE016F5F7F4F88E091E096
S11309E00E94AC0785E093E00E94710A0F900F907B
S11309F0DF91CF91089562E088E091E00E94F007D2
S1130A0061E088E091E00E94F00762E088E091E014
S1130A100E94F0076EE088E091E00E94F00785E014
S1130A2093E00E94710A08951F920F920FB60F92DD
S1130A3011242F933F934F935F936F937F938F93DF
S1130A409F93AF93BF93EF93FF93E8988FED92E05A
S1130A500E94710A68EC70E080EA92E00E94980AB1
S1130A60FF91EF91BF91AF919F918F917F916F9182
S1130A705F914F913F912F910F900FBE0F901F9058
S1130A8018950E94AD0460E080E00E94B504E091F6
S1130A906002F091610234968591949122E0883647
S1130AA0920729F48AEF91E00E94DD0403C00996BD
S1130AB00E94DD0461E080E00E94B5048091600240
S1130AC09091610209960E94DD0481E008958530C9
S1130AD0910519F0069731F009C082EF95E00E9464
S1130AE0710A04C08DE296E00E94710A8FEE95E0CF
S1130AF00E94710A81E0089522E08836920721F06D
S1130B009093610280936002089580319105C9F049
S1130B1030F4009709F44BC00297E1F044C08032EE
S1130B20910529F08034910509F434C03CC0E0916A
S1130B306002F09161023296859194910E947C0545
S1130B4032C0E0916002F0916102859194910E941B
S1130B507C0529C08091600290916102FC01389665
S1130B60E491EE2381F06E2F70E085E00E94A70CE3
S1130B7065E875E081E00E94420C61E475E086E07E
S1130B800E94420C14C00696FC01859194910E9427
S1130B907C0509C0E0916002F09161023496859170
S1130BA094910E947C0580E090E00E94410581E0E0
S1130BB0089588E492E0909361028093600280E05B
S1130BC090E00E94410565E875E081E00E941C0CFC
S1130BD061E475E086E00E941C0C80E008950E94A8
S1130BE0D905089580913201909133010196909333
S1130BF03301809332018091740286FF07C062E35F
S1130C0070E082EF95E00E94980A08952FB7F89457
S1130C1084E48093740280ED80936B0288E0809377
S1130C206302809132019091330190936402809326
S1130C30650283E080937102109262028CE596E073
S1130C409093390180933801909335018093340156
S1130C5085EA8093BC002FBF08958091740286FFBB
S1130C6007C062E370E08DE296E00E94980A08955E
S1130C702FB7F8941092620282E08093710280EDA3
S1130C8080936B0288E080936E021092700281E080
S1130C9080936D0285E996E0909339018093380141
S1130CA0909335018093340188E48093740285EA3B
S1130CB08093BC002FBF0895809174028F7B809332
S1130CC0740261E087E00E94B5048091740281712E
S1130CD089F061E087E00E94B50485E490E2A0E039
S1130CE08093100190931101A093120180E191E08F
S1130CF00E94BF04809133018F93809132018F93BE
S1130D008AE391E09F938F9380E191E09F938F9387
S1130D100E94250D80E191E00E94BF040F900F9086
S1130D200F900F900F900F9008958091630290E0C0
S1130D30982F882720916402822B9093330180930B
S1130D403201809174028F7B8093740261E087E0AA
S1130D500E94B50480917402817189F061E087E09A
S1130D600E94B50485E490E2A0E080931001909382
S1130D701101A093120180E191E00E94BF048091CF
S1130D8033018F93809132018F938AE391E09F9393
S1130D908F9380E191E09F938F930E94250D80E1D2
S1130DA091E00E94BF040F900F900F900F900F904E
S1130DB00F90089580915901882341F060E080E00C
S1130DC00E94B50482E792E00E94DD0468EE73E0BD
S1130DD08DEE96E00E94980A089564E670E08AED2C
S1130DE096E00E94980A81E08093590140E050E027
S1130DF060E070E080E00E943E020895CF93DF93AC
S1130E001092590181E00E949B04C7ECD1E06881F3
S1130E1086EC91E00E941402E881F0E0EA53FE4F70
S1130E202181408130E0342B8217930709F04FC0B1
S1130E308091F4019091F50190935B0180935A01A4
S1130E4080915A0190915B019F938F93ECECF1E0B8
S1130E5081818F9380818F938DE391E09F938F9312
S1130E6081E291E09F938F930E94250D81E291E0AE
S1130E700E94BF04E6EDF1E081818F9380818F931E
S1130E80E4EDF1E081818F9380818F93E2EDF1E0D5
S1130E9081818F9380818F9384E491E09F938F93DA
S1130EA080E191E09F938F930E94250D61E080E0A3
S1130EB00E94B50480E191E00E94BF048DB79EB703
S1130EC042960FB6F8949EBF0FBE8DBF04C08DE747
S1130ED092E00E94DD0468EE73E08DEE96E00E94DD
S1130EE0980ADF91CF91089528E288E190E00FB647
S1130EF0F894A895809360000FBE209360000E9430
S1130F00A40B0E94410A0E9463010E9492040E9461
S1130F10EC0C0E944E0A0E94920B0E94FB040E9459
S1130F20B80264E670E08DEE96E00E94980A67E6E7
S1130F3075E085E00E941C0C80E090E00E94D905D9
S1130F40A8950E94FD0AFCCFFC01808191819583C4
S1130F508483178216820895EF92FF920F931F9352
S1130F60CF93DF93FC01EB019A01E080F180628171
S1130F7073818B01015011090E0D1F1D468157818C
S1130F80848195818E199F09840F951F0E94F70C07
S1130F90D701A80FB91F12161306D4F40A171B079A
S1130FA010F4A081B18186819781892B29F08481F5
S1130FB095818A179B0761F089918D93868197812A
S1130FC0019697838683215031092115310531F724
S1130FD0C901DF91CF911F910F91FF90EF90089578
S1130FE00F931F93CF93DF93FC01462FC081D181D0
S1130FF0228133810481158186819781B8016C1B1C
S11310007D0B860F971FB9010E94F70C8C0F9D1F53
S1131010215031092C0F3D1F2817390708F0EC0126
S113102086819781892B19F0C017D10749F048832D
S11310308681978101969783868380E090E002C041
S113104081E090E0DF91CF911F910F9108950F936C
S11310501F93CF93DF93FC01028113810150110987
S113106080819181080F191F1416150654F5868185
S113107097811816190644F5A62FB72F80E090E043
S1131080C481D58128812D93248135812F5F3F4FE1
S11310903583248366817781615071097783668300
S11310A00217130720F420813181358324830196AC
S11310B08417950759F0268137811216130604F315
S11310C005C080E090E002C080E090E0DF91CF9125
S11310D01F910F91089508951F920F920FB60F92CA
S11310E011242F933F934F935F936F937F938F9329
S11310F09F93AF93BF93EF93FF938091B900887F41
S113110090E0893C910508F0ABC1FC01EC5CFF4F19
S11311100C940B0D8091740281608093740285E9B4
S11311208093BC00E0913401F0913501099598C198
S1131130809174028C7031F480916B028160809391
S11311406B0205C080916B028E7F80936B0280914D
S11311506B028093BB0085E88093BC0081C18091C1
S113116074028C70883031F480916B0281608093BA
S11311706B0205C080916B028E7F80936B0280911D
S11311806B028093BB0085E88093BC0069C18091A9
S113119074028C70843081F4E0916202F0E0ED59C5
S11311A0FD4F80818093BB00809162028F5F8093AA
S11311B0620285E88093BC00809174028C70883050
S11311C009F04EC1E0917002F0E0E259FD4F8081D8
S11311D08093BB00809170028F5F8093700285E8DA
S11311E08093BC003DC1809174028061809374023D
S11311F085E98093BC00E0913401F09135010995B3
S11312002FC1809174028C708430E9F4E091620201
S113121080917102E81309C085E98093BC00E091D4
S11312203801F091390109950EC0F0E0ED59FD4FF8
S113123080818093BB00809162028F5F8093620201
S113124085E88093BC00809174028C70883009F02A
S113125007C1E091700280916D02E81304C085EA31
S11312608093BC00FDC0F0E0E259FD4F8081809383
S1131270BB00809170028F5F8093700285E8809339
S1131280BC00EEC08091740282608093740285E990
S11312908093BC00E0913801F09139010995E0C0D8
S11312A080917402806280937402109262021092A0
S11312B0700285EA8093BC00D3C02091620230E0C2
S11312C02F5F3F4F8091710290E02817390721F476
S11312D085E88093BC00C4C085EC8093BC00C0C08A
S11312E08091740280618093740285E98093BC00CC
S11312F0E0913401F09135010995B2C02091620268
S11313008091BB00E22FF0E0ED59FD4F80832F5F09
S11313102093620230E02F5F3F4F8091710290E092
S11313202817390721F485E88093BC0099C085EC1F
S11313308093BC0095C08091BB00E0916202F0E014
S1131340ED59FD4F808385E98093BC00E09138011D
S1131350F0913901099584C080917402806A809368
S1131360740210926202109270028091740280647E
S1131370809374021092720285E88093BC0070C05E
S1131380809172029091BB00E82FF0E0ED58FD4F80
S113139090838F5F80937202811104C085E88093EB
S11313A0BC005EC085EC8093BC005AC08091BB0039
S11313B0E0917202F0E0ED58FD4F80838091740259
S11313C0882324F485EE8093BC0003C085EC8093CD
S11313D0BC00E0913601F0913701099541C085ECDC
S11313E08093BC003DC080917402806A8093740233
S11313F010926202109270021092720280916C023A
S11314008093BB0085E88093BC002AC0E0917202FF
S1131410EF5FE0937202F0E0E459FD4F8081809326
S1131420BB0080917202811104C085E88093BC00E6
S113143017C081EC8093BC0013C080917402882390
S11314403CF48F778093740285EE8093BC0003C0D4
S113145085EC8093BC00E0913601F0913701099549
S1131460FF91EF91BF91AF919F918F917F916F9178
S11314705F914F913F912F910F900FBE0F901F904E
S1131480189588B1806388B987B18F7C87B988E45F
S11314908093B8001092B9000895089580E090E018
S11314A02DE43AE0FC01EE0FFF1FE456FE4F3183BA
S11314B02083019685319105A9F780E090E02DE421
S11314C03AE0FC01EE0FFF1FEE0FFF1FE45AFE4F40
S11314D0318320831382128201968031910589F72A
S11314E008950FB607FE0CC0F894A1E00AC02F5F60
S11314F03F4F2531310539F4AA23C9F07894089572
S1131500A0E020E030E0F901EE0FFF1FE456FE4FAB
S1131510408151814D545A4051F7F901EE0FFF1F9C
S1131520E456FE4F91838083AA2309F078940895AA
S1131530CF930FB607FE03C0F894C1E001C0C0E02A
S113154020915C0130915D012817390781F021E079
S113155030E0D901F901EE0FFF1FEE0FFF1FE45A2F
S1131560FE4F408151814817590789F402C0A0E019
S1131570B0E0AA0FBB1FAA0FBB1FA45ABE4F1396FD
S11315807C936E931297CC23B1F1789434C02F5F7F
S11315903F4F20313105E9F620915C0130915D0126
S11315A02D543A4081F021E030E0D901F901EE0FE9
S11315B0FF1FEE0FFF1FE45AFE4F408151814D542F
S11315C05A40A1F402C0A0E0B0E0AA0FBB1FAA0FCA
S11315D0BB1FA45ABE4F11969C938E9313967C9373
S11315E06E931297CC2339F0789405C02F5F3F4F48
S11315F020313105D1F6CF910895F894E0919C0102
S1131600F0919D018AE0ED34F80711F4789420C03C
S113161020E030E0C9010196DC01AA0FBB1FA456EB
S1131620BE4F4D915C91D901AA0FBB1FA456BE4F6A
S113163011965C934E938431910511F09C01EACF8D
S11316408DE49AE09093C5018093C4017894099540
S11316500E94B50B08951F920F920FB60F9211249A
S1131660EF92FF920F931F932F933F934F935F93A8
S11316706F937F938F939F93AF93BF93CF93DF9396
S1131680EF93FF93C0E0D0E00DE41AE0FE01DE0129
S1131690AA0FBB1FAA0FBB1FA45ABE4F8D919C91CA
S11316A08D549A4021F1DE01AA0FBB1FAA0FBB1F64
S11316B0A45ABE4F12968D919C911397019739F0BD
S11316C0FD018281938101979383828310C0EE0F81
S11316D0FF1FEE0FFF1FCF01845A9E4F7C01FC01B8
S11316E0808191810E94710AF70111830083219600
S11316F0C031D10559F6FF91EF91DF91CF91BF91A0
S1131700AF919F918F917F916F915F914F913F9195
S11317102F911F910F91FF90EF900F900FBE0F909C
S11317201F901895E1E8F0E080818B6080838AEF58
S113173090E09093890080938800EFE6F0E0808148
S113174082608083789408958FE285B984B980E5B6
S11317508CBD8DB581608DBD80E788B98FE487B974
S113176086E18BB981E78AB908950F931F93CF93CC
S1131770DF932091750230917602809177029091E7
S113178078022817390709F452C02FB7F8948091CA
S11317907702909178020196897099279093780244
S11317A0809377028091770290917802FC01EE0F8A
S11317B0FF1F8E0F9F1FFC01E757FD4FC0818091D3
S11317C0770290917802FC01EE0FFF1F8E0F9F1F8E
S11317D0FC01E757FD4F018112812FBFCC2339F162
S11317E080917902882319F1D0917902D150FAF0CD
S11317F02D2F332727FD3095F901EE0FFF1FE20F40
S1131800F31FE658FD4F8081C8130FC0F901EE0F96
S1131810FF1F2E0F3F1FF901E658FD4F0180F28193
S1131820E02DC8010995811102C0D1500AF7DF915A
S1131830CF911F910F9108959FB7F8942091790249
S11318402530F0F42091790230E0F901EE0FFF1F0A
S11318502E0F3F1FF901E658FD4F728361832091DB
S1131860790230E0F901EE0FFF1F2E0F3F1FF9013F
S1131870E658FD4F8083809179028F5F80937902CF
S11318809FBF089590917902992309F45FC05FB7CF
S1131890F8944091790241500AF457C0242F332719
S11318A027FD3095F901EE0FFF1FE20FF31FE658F5
S11318B0FD4F9081981346C0F901EE0FFF1F2E0FC4
S11318C03F1FF901E658FD4F218132812617370762
S11318D0C9F5842F992787FD90952091790230E0EE
S11318E021503109821793073CF59C012F5F3F4F2C
S11318F0D901AA0FBB1FA20FB31FA658BD4F2C912D
S1131900FC01EE0FFF1F8E0F9F1FFC01E658FD4FD9
S1131910208311968D919C911297928381834F5FBE
S1131920842F992787FD90952091790230E02150EA
S1131930310982179307CCF2809179028150809308
S1131940790203C041500AF0A9CF5FBF08954FB791
S1131950F89420917502309176022F5F3F4F2970E1
S113196033273093760220937502209175023091CB
S11319707602F901EE0FFF1F2E0F3F1FF901E75703
S1131980FD4F80838091750290917602FC01EE0FE9
S1131990FF1F8E0F9F1FFC01E757FD4F728361836A
S11319A020917502309176028091770290917802AD
S11319B02817390759F4809177029091780201969B
S11319C08970992790937802809377024FBF85EBB3
S11319D09BE00E94710A0895109279021092780295
S11319E0109277021092760210927502089597FB76
S11319F0072E16F4009407D077FD09D00E94110D2C
S1131A0007FC05D03EF4909581959F4F08957095FD
S1131A1061957F4F0895EE0FFF1F0590F491E02D1F
S1131A200994AA1BBB1B51E107C0AA1FBB1FA61721
S1131A30B70710F0A61BB70B881F991F5A95A9F773
S1131A4080959095BC01CD010895AEE0B0E0EBE245
S1131A50FDE00C94CD0F0D891E8986E08C831A83DA
S1131A6009838FEF9FE79E838D83AE01475E5F4FAF
S1131A706F89788DCE0101960E94470DEF81F8851C
S1131A80E00FF11F10822E96E4E00C94E90FACE015
S1131A90B0E0EDE4FDE00C94BF0F7C016B018A0122
S1131AA0FC0117821682838181FFBDC1CE0101969C
S1131AB04C01F7019381F60193FD859193FF819188
S1131AC06F01882309F4ABC1853239F493FD859104
S1131AD093FF81916F01853229F4B70190E00E9450
S1131AE02F0FE7CF512C312C20E02032A0F48B3281
S1131AF069F030F4803259F0833269F420612CC0EB
S1131B008D3239F0803339F4216026C0226024609C
S1131B1023C0286021C027FD27C030ED380F3A309C
S1131B2078F426FF06C0FAE05F9E300D1124532E90
S1131B3013C08AE0389E300D1124332E20620CC06D
S1131B408E3221F426FD6BC1206406C08C3611F45C
S1131B50206802C0883641F4F60193FD859193FF15
S1131B6081916F018111C1CF982F9F7D955493303E
S1131B7028F40C5F1F4FFFE3F9830DC0833631F067
S1131B80833771F0833509F05BC022C0F80180818E
S1131B9089830E5F1F4F44244394512C540115C074
S1131BA03801F2E06F0E711CF801A080B18026FFAD
S1131BB003C0652D70E002C06FEF7FEFC5012C8775
S1131BC00E94240F2C0183012C852F77222E17C00D
S1131BD03801F2E06F0E711CF801A080B18026FF7D
S1131BE003C0652D70E002C06FEF7FEFC5012C8745
S1131BF00E94190F2C012C852068222E830123FCBE
S1131C001BC0832D90E048165906B0F4B70180E25A
S1131C1090E00E942F0F3A94F4CFF50127FC8591B0
S1131C2027FE81915F01B70190E00E942F0F3110D0
S1131C303A94F1E04F1A51084114510471F7E5C088
S1131C40843611F0893639F5F80127FF07C0608121
S1131C507181828193810C5F1F4F08C06081718103
S1131C60882777FD8095982F0E5F1F4F2F76B22E11
S1131C7097FF09C090958095709561957F4F8F4F20
S1131C809F4F2068B22E2AE030E0A4010E94610F29
S1131C90A82EA81844C0853729F42F7EB22E2AE036
S1131CA030E025C0F22FF97FBF2E8F36C1F018F433
S1131CB0883579F0B4C0803719F0883721F0AFC087
S1131CC02F2F2061B22EB4FE0DC08B2D8460B82E50
S1131CD009C024FF0AC09F2F9660B92E06C028E0D1
S1131CE030E005C020E130E002C020E132E0F8013C
S1131CF0B7FE07C060817181828193810C5F1F4FA1
S1131D0006C06081718180E090E00E5F1F4FA401E6
S1131D100E94610FA82EA818FB2DFF77BF2EB6FED8
S1131D200BC02B2D2E7FA51450F4B4FE0AC0B2FCB8
S1131D3008C02B2D2E7E05C07A2C2B2D03C07A2CA7
S1131D4001C0752C24FF0DC0FE01EA0DF11D808138
S1131D50803311F4297E09C022FF06C07394739462
S1131D6004C0822F867809F0739423FD13C020FFEA
S1131D7006C05A2C731418F4530C5718732C73148C
S1131D8068F4B70180E290E02C870E942F0F7394CF
S1131D902C85F5CF731410F4371801C0312C24FFAF
S1131DA012C0B70180E390E02C870E942F0F2C858E
S1131DB022FF17C021FF03C088E590E002C088E736
S1131DC090E0B7010CC0822F867859F021FD02C043
S1131DD080E201C08BE227FD8DE2B70190E00E9412
S1131DE02F0FA51438F4B70180E390E00E942F0F61
S1131DF05A94F7CFAA94F401EA0DF11D8081B7013A
S1131E0090E00E942F0FA110F5CF332009F451CE9A
S1131E10B70180E290E00E942F0F3A94F6CFF701C9
S1131E208681978102C08FEF9FEF2C96E2E10C949C
S1131E30DB0FFC010590615070400110D8F78095CC
S1131E4090958E0F9F1F0895FC0161507040019082
S1131E500110D8F7809590958E0F9F1F08950F93CA
S1131E601F93CF93DF93182F092FEB018B8181FDF3
S1131E7003C08FEF9FEF20C082FF10C04E815F81AF
S1131E802C813D81421753077CF4E881F9819F013D
S1131E902F5F3F4F39832883108306C0E885F98577
S1131EA0812F0995892B29F72E813F812F5F3F4F81
S1131EB03F832E83812F902FDF91CF911F910F911C
S1131EC00895FA01AA27283051F1203181F1E894CC
S1131ED06F936E7F6E5F7F4F8F4F9F4FAF4FB1E019
S1131EE03ED0B4E03CD0670F781F891F9A1FA11D14
S1131EF0680F791F8A1F911DA11D6A0F711D811D15
S1131F00911DA11D20D009F468943F912AE0269FD9
S1131F1011243019305D3193DEF6CF010895462F38
S1131F204770405D4193B3E00FD0C9F7F6CF462F19
S1131F304F70405D4A3318F0495D31FD4052419382
S1131F4002D0A9F7EACFB4E0A6959795879577953F
S1131F506795BA95C9F700976105710508959B01C6
S1131F60AC010A2E06945795479537952795BA954F
S1131F70C9F7620F731F841F951FA01D08952F9228
S1131F803F924F925F926F927F928F929F92AF9205
S1131F90BF92CF92DF92EF92FF920F931F93CF9352
S1131FA0DF93CDB7DEB7CA1BDB0B0FB6F894DEBFE9
S1131FB00FBECDBF09942A88398848885F846E840F
S1131FC07D848C849B84AA84B984C884DF80EE8059
S1131FD0FD800C811B81AA81B981CE0FD11D0FB662
S1131FE0F894DEBF0FBECDBFED010895F894FFCF86
S1131FF022020F000000000051020F000000000048
S1132000303132333435363738394142434445462A
S11320100030313233343536373839414243444560
S1132020460001006B086B086B08256400256420DA
S1132030257564002533642025336420253364002A
S9030000FC
