S00D000074657374312E7372656326
S11300000C9434000C943E000C943E000C943E007E
S11300100C943E000C943E000C943E000C943E0064
S11300200C943E000C943E000C943E000C943E0054
S11300300C943E000C943E000C943E000C943E0044
S11300400C943E000C943E000C943E000C943E0034
S11300500C943E000C943E000C943E000C943E0024
S11300600C943E000C943E0011241FBECFEFD8E048
S1130070DEBFCDBF0E9440000C946E000C940000C3
S113008080E68AB91BB890E280E49BB92FEF34E391
S11300904CE0215030404040E1F700C000001BB864
S11300A02FEF34E34CE0215030404040E1F700C0F2
S11300B000008BB92FEF34E34CE021503040404036
S11300C0E1F700C000001BB82FEF34E34CE02150EF
S11300D030404040E1F700C00000D7CFF894FFCF94
S9030000FC
